{
  "contractName": "SolnSquareVerifier",
  "abi": [
    {
      "constant": true,
      "inputs": [
        {
          "name": "interfaceId",
          "type": "bytes4"
        }
      ],
      "name": "supportsInterface",
      "outputs": [
        {
          "name": "",
          "type": "bool"
        }
      ],
      "payable": false,
      "stateMutability": "view",
      "type": "function"
    },
    {
      "constant": true,
      "inputs": [],
      "name": "name",
      "outputs": [
        {
          "name": "",
          "type": "string"
        }
      ],
      "payable": false,
      "stateMutability": "view",
      "type": "function"
    },
    {
      "constant": true,
      "inputs": [
        {
          "name": "tokenId",
          "type": "uint256"
        }
      ],
      "name": "getApproved",
      "outputs": [
        {
          "name": "",
          "type": "address"
        }
      ],
      "payable": false,
      "stateMutability": "view",
      "type": "function"
    },
    {
      "constant": false,
      "inputs": [
        {
          "name": "to",
          "type": "address"
        },
        {
          "name": "tokenId",
          "type": "uint256"
        }
      ],
      "name": "approve",
      "outputs": [],
      "payable": false,
      "stateMutability": "nonpayable",
      "type": "function"
    },
    {
      "constant": false,
      "inputs": [],
      "name": "setContact",
      "outputs": [],
      "payable": false,
      "stateMutability": "nonpayable",
      "type": "function"
    },
    {
      "constant": true,
      "inputs": [],
      "name": "totalSupply",
      "outputs": [
        {
          "name": "",
          "type": "uint256"
        }
      ],
      "payable": false,
      "stateMutability": "view",
      "type": "function"
    },
    {
      "constant": false,
      "inputs": [
        {
          "name": "from",
          "type": "address"
        },
        {
          "name": "to",
          "type": "address"
        },
        {
          "name": "tokenId",
          "type": "uint256"
        }
      ],
      "name": "transferFrom",
      "outputs": [],
      "payable": false,
      "stateMutability": "nonpayable",
      "type": "function"
    },
    {
      "constant": false,
      "inputs": [
        {
          "name": "_myid",
          "type": "bytes32"
        },
        {
          "name": "_result",
          "type": "string"
        }
      ],
      "name": "__callback",
      "outputs": [],
      "payable": false,
      "stateMutability": "nonpayable",
      "type": "function"
    },
    {
      "constant": true,
      "inputs": [
        {
          "name": "owner",
          "type": "address"
        },
        {
          "name": "index",
          "type": "uint256"
        }
      ],
      "name": "tokenOfOwnerByIndex",
      "outputs": [
        {
          "name": "",
          "type": "uint256"
        }
      ],
      "payable": false,
      "stateMutability": "view",
      "type": "function"
    },
    {
      "constant": false,
      "inputs": [
        {
          "name": "_myid",
          "type": "bytes32"
        },
        {
          "name": "_result",
          "type": "string"
        },
        {
          "name": "_proof",
          "type": "bytes"
        }
      ],
      "name": "__callback",
      "outputs": [],
      "payable": false,
      "stateMutability": "nonpayable",
      "type": "function"
    },
    {
      "constant": true,
      "inputs": [],
      "name": "BaseTokenURI",
      "outputs": [
        {
          "name": "",
          "type": "string"
        }
      ],
      "payable": false,
      "stateMutability": "view",
      "type": "function"
    },
    {
      "constant": false,
      "inputs": [
        {
          "name": "to",
          "type": "address"
        },
        {
          "name": "tokenId",
          "type": "uint256"
        }
      ],
      "name": "mint",
      "outputs": [
        {
          "name": "",
          "type": "bool"
        }
      ],
      "payable": false,
      "stateMutability": "nonpayable",
      "type": "function"
    },
    {
      "constant": false,
      "inputs": [
        {
          "name": "from",
          "type": "address"
        },
        {
          "name": "to",
          "type": "address"
        },
        {
          "name": "tokenId",
          "type": "uint256"
        }
      ],
      "name": "safeTransferFrom",
      "outputs": [],
      "payable": false,
      "stateMutability": "nonpayable",
      "type": "function"
    },
    {
      "constant": true,
      "inputs": [
        {
          "name": "index",
          "type": "uint256"
        }
      ],
      "name": "tokenByIndex",
      "outputs": [
        {
          "name": "",
          "type": "uint256"
        }
      ],
      "payable": false,
      "stateMutability": "view",
      "type": "function"
    },
    {
      "constant": true,
      "inputs": [
        {
          "name": "tokenId",
          "type": "uint256"
        }
      ],
      "name": "ownerOf",
      "outputs": [
        {
          "name": "",
          "type": "address"
        }
      ],
      "payable": false,
      "stateMutability": "view",
      "type": "function"
    },
    {
      "constant": true,
      "inputs": [
        {
          "name": "owner",
          "type": "address"
        }
      ],
      "name": "balanceOf",
      "outputs": [
        {
          "name": "",
          "type": "uint256"
        }
      ],
      "payable": false,
      "stateMutability": "view",
      "type": "function"
    },
    {
      "constant": true,
      "inputs": [
        {
          "name": "",
          "type": "bytes32"
        }
      ],
      "name": "solutions",
      "outputs": [
        {
          "name": "solutionIndex",
          "type": "uint256"
        },
        {
          "name": "solutionAddress",
          "type": "address"
        },
        {
          "name": "solutionExists",
          "type": "bool"
        },
        {
          "name": "minted",
          "type": "bool"
        }
      ],
      "payable": false,
      "stateMutability": "view",
      "type": "function"
    },
    {
      "constant": true,
      "inputs": [],
      "name": "symbol",
      "outputs": [
        {
          "name": "",
          "type": "string"
        }
      ],
      "payable": false,
      "stateMutability": "view",
      "type": "function"
    },
    {
      "constant": false,
      "inputs": [
        {
          "name": "to",
          "type": "address"
        },
        {
          "name": "approved",
          "type": "bool"
        }
      ],
      "name": "setApprovalForAll",
      "outputs": [],
      "payable": false,
      "stateMutability": "nonpayable",
      "type": "function"
    },
    {
      "constant": true,
      "inputs": [],
      "name": "_owner",
      "outputs": [
        {
          "name": "",
          "type": "address"
        }
      ],
      "payable": false,
      "stateMutability": "view",
      "type": "function"
    },
    {
      "constant": false,
      "inputs": [
        {
          "name": "from",
          "type": "address"
        },
        {
          "name": "to",
          "type": "address"
        },
        {
          "name": "tokenId",
          "type": "uint256"
        },
        {
          "name": "_data",
          "type": "bytes"
        }
      ],
      "name": "safeTransferFrom",
      "outputs": [],
      "payable": false,
      "stateMutability": "nonpayable",
      "type": "function"
    },
    {
      "constant": true,
      "inputs": [],
      "name": "numberOfSolutions",
      "outputs": [
        {
          "name": "",
          "type": "uint256"
        }
      ],
      "payable": false,
      "stateMutability": "view",
      "type": "function"
    },
    {
      "constant": true,
      "inputs": [
        {
          "name": "tokenId",
          "type": "uint256"
        }
      ],
      "name": "tokenURI",
      "outputs": [
        {
          "name": "",
          "type": "string"
        }
      ],
      "payable": false,
      "stateMutability": "view",
      "type": "function"
    },
    {
      "constant": true,
      "inputs": [
        {
          "name": "owner",
          "type": "address"
        },
        {
          "name": "operator",
          "type": "address"
        }
      ],
      "name": "isApprovedForAll",
      "outputs": [
        {
          "name": "",
          "type": "bool"
        }
      ],
      "payable": false,
      "stateMutability": "view",
      "type": "function"
    },
    {
      "constant": false,
      "inputs": [
        {
          "name": "newOwner",
          "type": "address"
        }
      ],
      "name": "transferOwnership",
      "outputs": [],
      "payable": false,
      "stateMutability": "nonpayable",
      "type": "function"
    },
    {
      "inputs": [
        {
          "name": "verifierAddress",
          "type": "address"
        },
        {
          "name": "name",
          "type": "string"
        },
        {
          "name": "symbol",
          "type": "string"
        }
      ],
      "payable": false,
      "stateMutability": "nonpayable",
      "type": "constructor"
    },
    {
      "anonymous": false,
      "inputs": [
        {
          "indexed": false,
          "name": "solutionIndex",
          "type": "uint256"
        },
        {
          "indexed": true,
          "name": "solutionAddress",
          "type": "address"
        }
      ],
      "name": "SolutionAdded",
      "type": "event"
    },
    {
      "anonymous": false,
      "inputs": [
        {
          "indexed": true,
          "name": "from",
          "type": "address"
        },
        {
          "indexed": true,
          "name": "to",
          "type": "address"
        },
        {
          "indexed": true,
          "name": "tokenId",
          "type": "uint256"
        }
      ],
      "name": "Transfer",
      "type": "event"
    },
    {
      "anonymous": false,
      "inputs": [
        {
          "indexed": true,
          "name": "owner",
          "type": "address"
        },
        {
          "indexed": true,
          "name": "approved",
          "type": "address"
        },
        {
          "indexed": true,
          "name": "tokenId",
          "type": "uint256"
        }
      ],
      "name": "Approval",
      "type": "event"
    },
    {
      "anonymous": false,
      "inputs": [
        {
          "indexed": true,
          "name": "owner",
          "type": "address"
        },
        {
          "indexed": true,
          "name": "operator",
          "type": "address"
        },
        {
          "indexed": false,
          "name": "approved",
          "type": "bool"
        }
      ],
      "name": "ApprovalForAll",
      "type": "event"
    },
    {
      "anonymous": false,
      "inputs": [
        {
          "indexed": true,
          "name": "caller",
          "type": "address"
        }
      ],
      "name": "Paused",
      "type": "event"
    },
    {
      "anonymous": false,
      "inputs": [
        {
          "indexed": true,
          "name": "caller",
          "type": "address"
        }
      ],
      "name": "Unpaused",
      "type": "event"
    },
    {
      "anonymous": false,
      "inputs": [],
      "name": "OwnerShipIsTransfered",
      "type": "event"
    },
    {
      "constant": false,
      "inputs": [
        {
          "name": "a",
          "type": "uint256[2]"
        },
        {
          "name": "b",
          "type": "uint256[2][2]"
        },
        {
          "name": "c",
          "type": "uint256[2]"
        },
        {
          "name": "input",
          "type": "uint256[2]"
        }
      ],
      "name": "addSolution",
      "outputs": [],
      "payable": false,
      "stateMutability": "nonpayable",
      "type": "function"
    },
    {
      "constant": false,
      "inputs": [
        {
          "name": "a",
          "type": "uint256"
        },
        {
          "name": "b",
          "type": "uint256"
        },
        {
          "name": "to",
          "type": "address"
        }
      ],
      "name": "mintNewNFT",
      "outputs": [],
      "payable": false,
      "stateMutability": "nonpayable",
      "type": "function"
    }
  ],
  "bytecode": "0x608060405260006014553480156200001657600080fd5b506040516200364138038062003641833981018060405260608110156200003c57600080fd5b810190808051906020019092919080516401000000008111156200005f57600080fd5b828101905060208101848111156200007657600080fd5b81518560018202830111640100000000821117156200009457600080fd5b50509291906020018051640100000000811115620000b157600080fd5b82810190506020810184811115620000c857600080fd5b8151856001820283011164010000000082111715620000e657600080fd5b5050929190505050818181816040518060600160405280603f815260200162003602603f9139336000806101000a81548173ffffffffffffffffffffffffffffffffffffffff021916908373ffffffffffffffffffffffffffffffffffffffff16021790555060008060146101000a81548160ff0219169083151502179055506200017e6301ffc9a760e01b6200026060201b60201c565b620001966380ac58cd60e01b6200026060201b60201c565b620001ae63780e9d6360e01b6200026060201b60201c565b82600f9080519060200190620001c692919062000302565b508160109080519060200190620001df92919062000302565b508060119080519060200190620001f892919062000302565b5062000211635b5e139f60e01b6200026060201b60201c565b505050505082601360006101000a81548173ffffffffffffffffffffffffffffffffffffffff021916908373ffffffffffffffffffffffffffffffffffffffff160217905550505050620003b1565b63ffffffff60e01b817bffffffffffffffffffffffffffffffffffffffffffffffffffffffff1916141515156200029657600080fd5b6001806000837bffffffffffffffffffffffffffffffffffffffffffffffffffffffff19167bffffffffffffffffffffffffffffffffffffffffffffffffffffffff1916815260200190815260200160002060006101000a81548160ff02191690831515021790555050565b828054600181600116156101000203166002900490600052602060002090601f016020900481019282601f106200034557805160ff191683800117855562000376565b8280016001018555821562000376579182015b828111156200037557825182559160200191906001019062000358565b5b50905062000385919062000389565b5090565b620003ae91905b80821115620003aa57600081600090555060010162000390565b5090565b90565b61324180620003c16000396000f3fe608060405234801561001057600080fd5b50600436106101a95760003560e01c806342842e0e116100f9578063b2bdfa7b11610097578063c87b56dd11610071578063c87b56dd14610bed578063e985e9c514610c94578063f2fde38b14610d10578063f76b443114610d54576101a9565b8063b2bdfa7b14610a80578063b88d4fde14610aca578063bd59579314610bcf576101a9565b806370a08231116100d357806370a08231146108ca57806375c705091461092257806395d89b41146109ad578063a22cb46514610a30576101a9565b806342842e0e146107ac5780634f6ccce71461081a5780636352211e1461085c576101a9565b806323b872dd1161016657806338bbfa501161014057806338bbfa501461050f57806338d470961461066b5780633ca039f5146106c357806340c10f1914610746576101a9565b806323b872dd1461037a57806327dc297e146103e85780632f745c59146104ad576101a9565b806301ffc9a7146101ae57806306fdde0314610213578063081812fc14610296578063095ea7b3146103045780630c5520d91461035257806318160ddd1461035c575b600080fd5b6101f9600480360360208110156101c457600080fd5b8101908080357bffffffffffffffffffffffffffffffffffffffffffffffffffffffff19169060200190929190505050610eb5565b604051808215151515815260200191505060405180910390f35b61021b610f1d565b6040518080602001828103825283818151815260200191508051906020019080838360005b8381101561025b578082015181840152602081019050610240565b50505050905090810190601f1680156102885780820380516001836020036101000a031916815260200191505b509250505060405180910390f35b6102c2600480360360208110156102ac57600080fd5b8101908080359060200190929190505050610fbf565b604051808273ffffffffffffffffffffffffffffffffffffffff1673ffffffffffffffffffffffffffffffffffffffff16815260200191505060405180910390f35b6103506004803603604081101561031a57600080fd5b81019080803573ffffffffffffffffffffffffffffffffffffffff1690602001909291908035906020019092919050505061106a565b005b61035a611172565b005b6103646111cf565b6040518082815260200191505060405180910390f35b6103e66004803603606081101561039057600080fd5b81019080803573ffffffffffffffffffffffffffffffffffffffff169060200190929190803573ffffffffffffffffffffffffffffffffffffffff169060200190929190803590602001909291905050506111dc565b005b6104ab600480360360408110156103fe57600080fd5b81019080803590602001909291908035906020019064010000000081111561042557600080fd5b82018360208201111561043757600080fd5b8035906020019184600183028401116401000000008311171561045957600080fd5b91908080601f016020809104026020016040519081016040528093929190818152602001838380828437600081840152601f19601f820116905080830192505050505050509192919290505050611201565b005b6104f9600480360360408110156104c357600080fd5b81019080803573ffffffffffffffffffffffffffffffffffffffff16906020019092919080359060200190929190505050611244565b6040518082815260200191505060405180910390f35b6106696004803603606081101561052557600080fd5b81019080803590602001909291908035906020019064010000000081111561054c57600080fd5b82018360208201111561055e57600080fd5b8035906020019184600183028401116401000000008311171561058057600080fd5b91908080601f016020809104026020016040519081016040528093929190818152602001838380828437600081840152601f19601f820116905080830192505050505050509192919290803590602001906401000000008111156105e357600080fd5b8201836020820111156105f557600080fd5b8035906020019184600183028401116401000000008311171561061757600080fd5b91908080601f016020809104026020016040519081016040528093929190818152602001838380828437600081840152601f19601f8201169050808301925050505050505091929192905050506112bb565b005b6106c16004803603606081101561068157600080fd5b810190808035906020019092919080359060200190929190803573ffffffffffffffffffffffffffffffffffffffff1690602001909291905050506112c0565b005b6106cb611526565b6040518080602001828103825283818151815260200191508051906020019080838360005b8381101561070b5780820151818401526020810190506106f0565b50505050905090810190601f1680156107385780820380516001836020036101000a031916815260200191505b509250505060405180910390f35b6107926004803603604081101561075c57600080fd5b81019080803573ffffffffffffffffffffffffffffffffffffffff169060200190929190803590602001909291905050506115c8565b604051808215151515815260200191505060405180910390f35b610818600480360360608110156107c257600080fd5b81019080803573ffffffffffffffffffffffffffffffffffffffff169060200190929190803573ffffffffffffffffffffffffffffffffffffffff169060200190929190803590602001909291905050506115e7565b005b6108466004803603602081101561083057600080fd5b8101908080359060200190929190505050611607565b6040518082815260200191505060405180910390f35b6108886004803603602081101561087257600080fd5b810190808035906020019092919050505061163f565b604051808273ffffffffffffffffffffffffffffffffffffffff1673ffffffffffffffffffffffffffffffffffffffff16815260200191505060405180910390f35b61090c600480360360208110156108e057600080fd5b81019080803573ffffffffffffffffffffffffffffffffffffffff16906020019092919050505061167c565b6040518082815260200191505060405180910390f35b61094e6004803603602081101561093857600080fd5b81019080803590602001909291905050506116cc565b604051808581526020018473ffffffffffffffffffffffffffffffffffffffff1673ffffffffffffffffffffffffffffffffffffffff168152602001831515151581526020018215151515815260200194505050505060405180910390f35b6109b5611736565b6040518080602001828103825283818151815260200191508051906020019080838360005b838110156109f55780820151818401526020810190506109da565b50505050905090810190601f168015610a225780820380516001836020036101000a031916815260200191505b509250505060405180910390f35b610a7e60048036036040811015610a4657600080fd5b81019080803573ffffffffffffffffffffffffffffffffffffffff1690602001909291908035151590602001909291905050506117d8565b005b610a88611914565b604051808273ffffffffffffffffffffffffffffffffffffffff1673ffffffffffffffffffffffffffffffffffffffff16815260200191505060405180910390f35b610bcd60048036036080811015610ae057600080fd5b81019080803573ffffffffffffffffffffffffffffffffffffffff169060200190929190803573ffffffffffffffffffffffffffffffffffffffff1690602001909291908035906020019092919080359060200190640100000000811115610b4757600080fd5b820183602082011115610b5957600080fd5b80359060200191846001830284011164010000000083111715610b7b57600080fd5b91908080601f016020809104026020016040519081016040528093929190818152602001838380828437600081840152601f19601f820116905080830192505050505050509192919290505050611939565b005b610bd7611961565b6040518082815260200191505060405180910390f35b610c1960048036036020811015610c0357600080fd5b8101908080359060200190929190505050611967565b6040518080602001828103825283818151815260200191508051906020019080838360005b83811015610c59578082015181840152602081019050610c3e565b50505050905090810190601f168015610c865780820380516001836020036101000a031916815260200191505b509250505060405180910390f35b610cf660048036036040811015610caa57600080fd5b81019080803573ffffffffffffffffffffffffffffffffffffffff169060200190929190803573ffffffffffffffffffffffffffffffffffffffff169060200190929190505050611a99565b604051808215151515815260200191505060405180910390f35b610d5260048036036020811015610d2657600080fd5b81019080803573ffffffffffffffffffffffffffffffffffffffff169060200190929190505050611b2d565b005b610eb36004803603610140811015610d6b57600080fd5b8101908080604001906002806020026040519081016040528092919082600260200280828437600081840152601f19601f82011690508083019250505050505091929192908060800190600280602002604051908101604052809291906000905b82821015610e20578382604002016002806020026040519081016040528092919082600260200280828437600081840152601f19601f82011690508083019250505050505081526020019060010190610dcc565b50505050919291929080604001906002806020026040519081016040528092919082600260200280828437600081840152601f19601f820116905080830192505050505050919291929080604001906002806020026040519081016040528092919082600260200280828437600081840152601f19601f8201169050808301925050505050509192919290505050611c2e565b005b600060016000837bffffffffffffffffffffffffffffffffffffffffffffffffffffffff19167bffffffffffffffffffffffffffffffffffffffffffffffffffffffff1916815260200190815260200160002060009054906101000a900460ff169050919050565b6060600f8054600181600116156101000203166002900480601f016020809104026020016040519081016040528092919081815260200182805460018160011615610100020316600290048015610fb55780601f10610f8a57610100808354040283529160200191610fb5565b820191906000526020600020905b815481529060010190602001808311610f9857829003601f168201915b5050505050905090565b60008073ffffffffffffffffffffffffffffffffffffffff166003600084815260200190815260200160002060009054906101000a900473ffffffffffffffffffffffffffffffffffffffff1673ffffffffffffffffffffffffffffffffffffffff16141515611064576003600083815260200190815260200160002060009054906101000a900473ffffffffffffffffffffffffffffffffffffffff169050611065565b5b919050565b6110738161163f565b73ffffffffffffffffffffffffffffffffffffffff163373ffffffffffffffffffffffffffffffffffffffff161415156110ac57600080fd5b6110b63383611a99565b15156110c157600080fd5b816003600083815260200190815260200160002060006101000a81548173ffffffffffffffffffffffffffffffffffffffff021916908373ffffffffffffffffffffffffffffffffffffffff160217905550808273ffffffffffffffffffffffffffffffffffffffff163373ffffffffffffffffffffffffffffffffffffffff167f8c5be1e5ebec7d5bd14f71427d1e84f3dd0314c0f7b2291e5b200ac8c7c3b92560405160405180910390a45050565b3373ffffffffffffffffffffffffffffffffffffffff166000809054906101000a900473ffffffffffffffffffffffffffffffffffffffff1673ffffffffffffffffffffffffffffffffffffffff161415156111cd57600080fd5b565b6000600880549050905090565b6111e63382612079565b15156111f157600080fd5b6111fc83838361210e565b505050565b611240828260006040519080825280601f01601f19166020018201604052801561123a5781602001600182028038833980820191505090505b506112bb565b5050565b600061124f8361167c565b8210151561125c57600080fd5b600660008473ffffffffffffffffffffffffffffffffffffffff1673ffffffffffffffffffffffffffffffffffffffff168152602001908152602001600020828154811015156112a857fe5b9060005260206000200154905092915050565b505050565b600083836040516020018083815260200182815260200192505050604051602081830303815290604052805190602001209050600115156015600083815260200190815260200160002060010160149054906101000a900460ff161515141515611392576040517f08c379a00000000000000000000000000000000000000000000000000000000081526004018080602001828103825260178152602001807f536f6c7574696f6e20646f6573206e6f7420657869737400000000000000000081525060200191505060405180910390fd5b600015156015600083815260200190815260200160002060010160159054906101000a900460ff161515141515611414576040517f08c379a00000000000000000000000000000000000000000000000000000000081526004018080602001828103825260268152602001806131f06026913960400191505060405180910390fd5b3373ffffffffffffffffffffffffffffffffffffffff166015600083815260200190815260200160002060010160009054906101000a900473ffffffffffffffffffffffffffffffffffffffff1673ffffffffffffffffffffffffffffffffffffffff161415156114d0576040517f08c379a00000000000000000000000000000000000000000000000000000000081526004018080602001828103825260308152602001806131c06030913960400191505060405180910390fd5b6114f08260156000848152602001908152602001600020600001546115c8565b5060016015600083815260200190815260200160002060010160156101000a81548160ff02191690831515021790555050505050565b606060118054600181600116156101000203166002900480601f0160208091040260200160405190810160405280929190818152602001828054600181600116156101000203166002900480156115be5780601f10611593576101008083540402835291602001916115be565b820191906000526020600020905b8154815290600101906020018083116115a157829003601f168201915b5050505050905090565b60006115d48383612132565b6115dd82612153565b6001905092915050565b61160283838360405180602001604052806000815250611939565b505050565b60006116116111cf565b8210151561161e57600080fd5b60088281548110151561162d57fe5b90600052602060002001549050919050565b60006002600083815260200190815260200160002060009054906101000a900473ffffffffffffffffffffffffffffffffffffffff169050919050565b60006116c5600460008473ffffffffffffffffffffffffffffffffffffffff1673ffffffffffffffffffffffffffffffffffffffff1681526020019081526020016000206122a6565b9050919050565b60156020528060005260406000206000915090508060000154908060010160009054906101000a900473ffffffffffffffffffffffffffffffffffffffff16908060010160149054906101000a900460ff16908060010160159054906101000a900460ff16905084565b606060108054600181600116156101000203166002900480601f0160208091040260200160405190810160405280929190818152602001828054600181600116156101000203166002900480156117ce5780601f106117a3576101008083540402835291602001916117ce565b820191906000526020600020905b8154815290600101906020018083116117b157829003601f168201915b5050505050905090565b3373ffffffffffffffffffffffffffffffffffffffff168273ffffffffffffffffffffffffffffffffffffffff161415151561181357600080fd5b80600560003373ffffffffffffffffffffffffffffffffffffffff1673ffffffffffffffffffffffffffffffffffffffff16815260200190815260200160002060008473ffffffffffffffffffffffffffffffffffffffff1673ffffffffffffffffffffffffffffffffffffffff16815260200190815260200160002060006101000a81548160ff0219169083151502179055508173ffffffffffffffffffffffffffffffffffffffff163373ffffffffffffffffffffffffffffffffffffffff167f17307eab39ab6107e8899845ad3d59bd9653f200f220920489ca2b5937696c3183604051808215151515815260200191505060405180910390a35050565b6000809054906101000a900473ffffffffffffffffffffffffffffffffffffffff1681565b6119448484846111dc565b611950848484846122b4565b151561195b57600080fd5b50505050565b60145481565b60606119728261249f565b15156119e6576040517f08c379a00000000000000000000000000000000000000000000000000000000081526004018080602001828103825260148152602001807f546f6b656e20646f6573206e6f7420657869737400000000000000000000000081525060200191505060405180910390fd5b601260008381526020019081526020016000208054600181600116156101000203166002900480601f016020809104026020016040519081016040528092919081815260200182805460018160011615610100020316600290048015611a8d5780601f10611a6257610100808354040283529160200191611a8d565b820191906000526020600020905b815481529060010190602001808311611a7057829003601f168201915b50505050509050919050565b6000600560008473ffffffffffffffffffffffffffffffffffffffff1673ffffffffffffffffffffffffffffffffffffffff16815260200190815260200160002060008373ffffffffffffffffffffffffffffffffffffffff1673ffffffffffffffffffffffffffffffffffffffff16815260200190815260200160002060009054906101000a900460ff16905092915050565b3373ffffffffffffffffffffffffffffffffffffffff166000809054906101000a900473ffffffffffffffffffffffffffffffffffffffff1673ffffffffffffffffffffffffffffffffffffffff16141515611b8857600080fd5b600073ffffffffffffffffffffffffffffffffffffffff168173ffffffffffffffffffffffffffffffffffffffff16141515611c2b57806000806101000a81548173ffffffffffffffffffffffffffffffffffffffff021916908373ffffffffffffffffffffffffffffffffffffffff1602179055507fa5697afaaa2a27394d6d212a8353c05a95105f996ba5f04ac352f566c58f432b60405160405180910390a15b50565b6000816000600281101515611c3f57fe5b6020020151826001600281101515611c5357fe5b60200201516040516020018083815260200182815260200192505050604051602081830303815290604052805190602001209050600015156015600083815260200190815260200160002060010160149054906101000a900460ff161515141515611d26576040517f08c379a00000000000000000000000000000000000000000000000000000000081526004018080602001828103825260178152602001807f536f6c7574696f6e2065786973747320616c726561647900000000000000000081525060200191505060405180910390fd5b6000601360009054906101000a900473ffffffffffffffffffffffffffffffffffffffff1673ffffffffffffffffffffffffffffffffffffffff1663621e9ec0878787876040518563ffffffff1660e01b81526004018085600260200280838360005b83811015611da4578082015181840152602081019050611d89565b505050509050018460026000925b81841015611df85782846020020151600260200280838360005b83811015611de7578082015181840152602081019050611dcc565b505050509050019260010192611db2565b9250505083600260200280838360005b83811015611e23578082015181840152602081019050611e08565b5050505090500182600260200280838360005b83811015611e51578082015181840152602081019050611e36565b50505050905001945050505050602060405180830381600087803b158015611e7857600080fd5b505af1158015611e8c573d6000803e3d6000fd5b505050506040513d6020811015611ea257600080fd5b81019080805190602001909291905050509050801515611f2a576040517f08c379a000000000000000000000000000000000000000000000000000000000815260040180806020018281038252601e8152602001807f536f6c7574696f6e20636f756c64206e6f74206265207665726966696564000081525060200191505060405180910390fd5b604051806080016040528060145481526020013373ffffffffffffffffffffffffffffffffffffffff16815260200160011515815260200160001515815250601560008481526020019081526020016000206000820151816000015560208201518160010160006101000a81548173ffffffffffffffffffffffffffffffffffffffff021916908373ffffffffffffffffffffffffffffffffffffffff16021790555060408201518160010160146101000a81548160ff02191690831515021790555060608201518160010160156101000a81548160ff0219169083151502179055509050503373ffffffffffffffffffffffffffffffffffffffff167f078793128cefb19aac38a33f9e5df39f67716907f6d747e8065545699e0b2b8d6014546040518082815260200191505060405180910390a26001601460008282540192505081905550505050505050565b6000806120858361163f565b90508073ffffffffffffffffffffffffffffffffffffffff168473ffffffffffffffffffffffffffffffffffffffff1614806120f457508373ffffffffffffffffffffffffffffffffffffffff166120dc84610fbf565b73ffffffffffffffffffffffffffffffffffffffff16145b8061210557506121048185611a99565b5b91505092915050565b612119838383612511565b612123838261271d565b61212d82826128c1565b505050565b61213c8282612988565b61214682826128c1565b61214f81612ad7565b5050565b61215c8161249f565b15156121d0576040517f08c379a00000000000000000000000000000000000000000000000000000000081526004018080602001828103825260148152602001807f546f6b656e20646f6573206e6f7420657869737400000000000000000000000081525060200191505060405180910390fd5b61227c60118054600181600116156101000203166002900480601f0160208091040260200160405190810160405280929190818152602001828054600181600116156101000203166002900480156122695780601f1061223e57610100808354040283529160200191612269565b820191906000526020600020905b81548152906001019060200180831161224c57829003601f168201915b505050505061227783612b23565b612c5d565b6012600083815260200190815260200160002090805190602001906122a29291906130ee565b5050565b600081600001549050919050565b60006122d58473ffffffffffffffffffffffffffffffffffffffff16612ca1565b15156122e45760019050612497565b60008473ffffffffffffffffffffffffffffffffffffffff1663150b7a02338887876040518563ffffffff1660e01b8152600401808573ffffffffffffffffffffffffffffffffffffffff1673ffffffffffffffffffffffffffffffffffffffff1681526020018473ffffffffffffffffffffffffffffffffffffffff1673ffffffffffffffffffffffffffffffffffffffff16815260200183815260200180602001828103825283818151815260200191508051906020019080838360005b838110156123bf5780820151818401526020810190506123a4565b50505050905090810190601f1680156123ec5780820380516001836020036101000a031916815260200191505b5095505050505050602060405180830381600087803b15801561240e57600080fd5b505af1158015612422573d6000803e3d6000fd5b505050506040513d602081101561243857600080fd5b8101908080519060200190929190505050905063150b7a0260e01b7bffffffffffffffffffffffffffffffffffffffffffffffffffffffff1916817bffffffffffffffffffffffffffffffffffffffffffffffffffffffff1916149150505b949350505050565b6000806002600084815260200190815260200160002060009054906101000a900473ffffffffffffffffffffffffffffffffffffffff169050600073ffffffffffffffffffffffffffffffffffffffff168173ffffffffffffffffffffffffffffffffffffffff161415915050919050565b8273ffffffffffffffffffffffffffffffffffffffff166125318261163f565b73ffffffffffffffffffffffffffffffffffffffff1614151561255357600080fd5b600073ffffffffffffffffffffffffffffffffffffffff168273ffffffffffffffffffffffffffffffffffffffff161415151561258f57600080fd5b6000600560008473ffffffffffffffffffffffffffffffffffffffff1673ffffffffffffffffffffffffffffffffffffffff16815260200190815260200160002060008573ffffffffffffffffffffffffffffffffffffffff1673ffffffffffffffffffffffffffffffffffffffff16815260200190815260200160002060006101000a81548160ff02191690831515021790555061266b600460008473ffffffffffffffffffffffffffffffffffffffff1673ffffffffffffffffffffffffffffffffffffffff168152602001908152602001600020612cec565b816002600083815260200190815260200160002060006101000a81548173ffffffffffffffffffffffffffffffffffffffff021916908373ffffffffffffffffffffffffffffffffffffffff160217905550808273ffffffffffffffffffffffffffffffffffffffff168473ffffffffffffffffffffffffffffffffffffffff167fddf252ad1be2c89b69c2b068fc378daa952ba7f163c4a11628f55a4df523b3ef60405160405180910390a4505050565b60006127756001600660008673ffffffffffffffffffffffffffffffffffffffff1673ffffffffffffffffffffffffffffffffffffffff16815260200190815260200160002080549050612d0290919063ffffffff16565b90506000600760008481526020019081526020016000205490508181141515612868576000600660008673ffffffffffffffffffffffffffffffffffffffff1673ffffffffffffffffffffffffffffffffffffffff168152602001908152602001600020838154811015156127e657fe5b9060005260206000200154905080600660008773ffffffffffffffffffffffffffffffffffffffff1673ffffffffffffffffffffffffffffffffffffffff1681526020019081526020016000208381548110151561284057fe5b9060005260206000200181905550816007600083815260200190815260200160002081905550505b600660008573ffffffffffffffffffffffffffffffffffffffff1673ffffffffffffffffffffffffffffffffffffffff1681526020019081526020016000208054809190600190036128ba919061316e565b5050505050565b600660008373ffffffffffffffffffffffffffffffffffffffff1673ffffffffffffffffffffffffffffffffffffffff168152602001908152602001600020805490506007600083815260200190815260200160002081905550600660008373ffffffffffffffffffffffffffffffffffffffff1673ffffffffffffffffffffffffffffffffffffffff1681526020019081526020016000208190806001815401808255809150509060018203906000526020600020016000909192909190915055505050565b600015156129958261249f565b15151415156129a357600080fd5b600073ffffffffffffffffffffffffffffffffffffffff168273ffffffffffffffffffffffffffffffffffffffff16141515156129df57600080fd5b816002600083815260200190815260200160002060006101000a81548173ffffffffffffffffffffffffffffffffffffffff021916908373ffffffffffffffffffffffffffffffffffffffff160217905550612a78600460008473ffffffffffffffffffffffffffffffffffffffff1673ffffffffffffffffffffffffffffffffffffffff168152602001908152602001600020612cec565b808273ffffffffffffffffffffffffffffffffffffffff163373ffffffffffffffffffffffffffffffffffffffff167fddf252ad1be2c89b69c2b068fc378daa952ba7f163c4a11628f55a4df523b3ef60405160405180910390a45050565b6008805490506009600083815260200190815260200160002081905550600881908060018154018082558091505090600182039060005260206000200160009091929091909150555050565b60606000821415612b6b576040518060400160405280600181526020017f30000000000000000000000000000000000000000000000000000000000000008152509050612c58565b600082905060005b600082141515612b99578080600101915050600a82811515612b9157fe5b049150612b73565b6060816040519080825280601f01601f191660200182016040528015612bce5781602001600182028038833980820191505090505b50905060006001830390505b600086141515612c5057600a86811515612bf057fe5b0660300160f81b828280600190039350815181101515612c0c57fe5b9060200101907effffffffffffffffffffffffffffffffffffffffffffffffffffffffffffff1916908160001a905350600a86811515612c4857fe5b049550612bda565b819450505050505b919050565b6060612c998383604051806020016040528060008152506040518060200160405280600081525060405180602001604052806000815250612d4c565b905092915050565b60008060007fc5d2460186f7233c927e7db2dcc703c0e500b653ca82273b7bfad8045d85a47060001b9050833f9150808214158015612ce357506000801b8214155b92505050919050565b6001816000016000828254019250508190555050565b6000612d4483836040518060400160405280601e81526020017f536166654d6174683a207375627472616374696f6e206f766572666c6f77000081525061302c565b905092915050565b6060808690506060869050606086905060608690506060869050606081518351855187518951010101016040519080825280601f01601f191660200182016040528015612da85781602001600182028038833980820191505090505b509050606081905060008090506000809050600090505b8851811015612e33578881815181101515612dd657fe5b90602001015160f81c60f81b8383806001019450815181101515612df657fe5b9060200101907effffffffffffffffffffffffffffffffffffffffffffffffffffffffffffff1916908160001a9053508080600101915050612dbf565b600090505b8751811015612eac578781815181101515612e4f57fe5b90602001015160f81c60f81b8383806001019450815181101515612e6f57fe5b9060200101907effffffffffffffffffffffffffffffffffffffffffffffffffffffffffffff1916908160001a9053508080600101915050612e38565b600090505b8651811015612f25578681815181101515612ec857fe5b90602001015160f81c60f81b8383806001019450815181101515612ee857fe5b9060200101907effffffffffffffffffffffffffffffffffffffffffffffffffffffffffffff1916908160001a9053508080600101915050612eb1565b600090505b8551811015612f9e578581815181101515612f4157fe5b90602001015160f81c60f81b8383806001019450815181101515612f6157fe5b9060200101907effffffffffffffffffffffffffffffffffffffffffffffffffffffffffffff1916908160001a9053508080600101915050612f2a565b600090505b8451811015613017578481815181101515612fba57fe5b90602001015160f81c60f81b8383806001019450815181101515612fda57fe5b9060200101907effffffffffffffffffffffffffffffffffffffffffffffffffffffffffffff1916908160001a9053508080600101915050612fa3565b82995050505050505050505095945050505050565b600083831115829015156130db576040517f08c379a00000000000000000000000000000000000000000000000000000000081526004018080602001828103825283818151815260200191508051906020019080838360005b838110156130a0578082015181840152602081019050613085565b50505050905090810190601f1680156130cd5780820380516001836020036101000a031916815260200191505b509250505060405180910390fd5b5060008385039050809150509392505050565b828054600181600116156101000203166002900490600052602060002090601f016020900481019282601f1061312f57805160ff191683800117855561315d565b8280016001018555821561315d579182015b8281111561315c578251825591602001919060010190613141565b5b50905061316a919061319a565b5090565b81548183558181111561319557818360005260206000209182019101613194919061319a565b5b505050565b6131bc91905b808211156131b85760008160009055506001016131a0565b5090565b9056fe4f6e6c7920736f6c7574696f6e20616464726573732063616e2075736520697420746f206d696e74206120746f6b656e546f6b656e20616c7265616479206d696e74656420666f72207468697320736f6c7574696f6ea165627a7a72305820d2ec76e37138778cf66f09c6082c403fc06d20373257ddb3b2a2afcc8bdc8a3d002968747470733a2f2f73332d75732d776573742d322e616d617a6f6e6177732e636f6d2f756461636974792d626c6f636b636861696e2f63617073746f6e652f",
  "source": "pragma solidity >=0.4.21;\n\nimport \"./ERC721Mintable.sol\";\n\n// TODO define another contract named SolnSquareVerifier that inherits from your ERC721Mintable class\ncontract SolnSquareVerifier is HouseToken {\n  Verifier private verifierContract;\n  constructor(address verifierAddress, string memory name, string memory symbol)\n    HouseToken(name, symbol)\n    public\n  {\n      verifierContract = Verifier(verifierAddress);\n  }\n\n\n\n  // TODO define a solutions struct that can hold an index & an address\n  struct Solution {\n    uint256 solutionIndex;\n    address solutionAddress;\n    bool solutionExists;\n    bool minted;\n  }\n\n  // TODO define an array of the above struct\n\n  uint256 public numberOfSolutions = 0;\n\n  // TODO define a mapping to store unique solutions submitted\n\n  mapping(bytes32 => Solution) public solutions;\n\n\n  // TODO Create an event to emit when a solution is added\n\n  event SolutionAdded(uint256 solutionIndex, address indexed solutionAddress);\n\n\n\n\n  // TODO Create a function to add the solutions to the array and emit the event\n\n  function addSolution(uint[2] memory a,uint[2][2] memory b,uint[2] memory c,uint[2] memory input)\n      public\n  {\n      bytes32 solutionHash = keccak256(abi.encodePacked(input[0], input[1]));\n      require(solutions[solutionHash].solutionExists == false, \"Solution exists already\");\n\n      bool verified = verifierContract.verifyTx(a,b,c, input);\n      require(verified, \"Solution could not be verified\");\n\n\n      solutions[solutionHash] = Solution(numberOfSolutions,msg.sender,true,false);\n\n      emit SolutionAdded(numberOfSolutions, msg.sender);\n      numberOfSolutions+=1;\n  }\n\n\n    // TODO Create a function to mint new NFT only after the solution has been verified\n    //  - make sure the solution is unique (has not been used before)\n    //  - make sure you handle metadata as well as tokenSuplly\n    function mintNewNFT(uint a, uint b, address to) public\n  {\n      bytes32 solutionHash = keccak256(abi.encodePacked(a, b));\n\n      require(solutions[solutionHash].solutionExists == true, \"Solution does not exist\");\n      require(solutions[solutionHash].minted == false, \"Token already minted for this solution\");\n      require(solutions[solutionHash].solutionAddress == msg.sender, \"Only solution address can use it to mint a token\");\n      super.mint(to, solutions[solutionHash].solutionIndex);\n      solutions[solutionHash].minted = true;\n  }\n\n\n}\n\n\n// TODO define a contract call to the zokrates generated solidity contract <Verifier> or <renamedVerifier>\ncontract Verifier {\n    function verifyTx(\n      uint[2] memory a,\n      uint[2][2] memory b,\n      uint[2] memory c,\n      uint[2] memory input\n    )\n    public\n    returns\n    (bool r);\n}\n",
  "sourcePath": "/home/dell/1/to/eth-contracts/contracts/SolnSquareVerifier.sol",
  "compiler": {
    "name": "solc",
    "version": "0.5.5+commit.47a71e8f.Emscripten.clang"
  },
  "schemaVersion": "3.2.0",
  "updatedAt": "2020-06-19T15:07:05.036Z",
  "devdoc": {
    "methods": {
      "isApprovedForAll(address,address)": {
        "details": "Tells whether an operator is approved by a given owner",
        "params": {
          "operator": "operator address which you want to query the approval of",
          "owner": "owner address which you want to query the approval of"
        },
        "return": "bool whether the given operator is approved by the given owner"
      },
      "setApprovalForAll(address,bool)": {
        "details": "Sets or unsets the approval of a given operator An operator is allowed to transfer all tokens of the sender on their behalf",
        "params": {
          "approved": "representing the status of the approval to be set",
          "to": "operator address to set the approval"
        }
      },
      "supportsInterface(bytes4)": {
        "details": "implement supportsInterface(bytes4) using a lookup table"
      },
      "tokenByIndex(uint256)": {
        "details": "Gets the token ID at a given index of all the tokens in this contract Reverts if the index is greater or equal to the total number of tokens",
        "params": {
          "index": "uint256 representing the index to be accessed of the tokens list"
        },
        "return": "uint256 token ID at the given index of the tokens list"
      },
      "tokenOfOwnerByIndex(address,uint256)": {
        "details": "Gets the token ID at a given index of the tokens list of the requested owner",
        "params": {
          "index": "uint256 representing the index to be accessed of the requested tokens list",
          "owner": "address owning the tokens list to be accessed"
        },
        "return": "uint256 token ID at the given index of the tokens list owned by the requested address"
      },
      "totalSupply()": {
        "details": "Gets the total amount of tokens stored by the contract",
        "return": "uint256 representing the total amount of tokens"
      }
    }
  },
  "userdoc": {
    "methods": {}
  }
}